{
  "transactions": [
    {
      "hash": "0xffa6f8a098a91acd0dcac2aee4f863cfb06b1eeefcb2ac449a941a70619b8108",
      "transactionType": "CALL",
      "contractName": null,
      "contractAddress": "0xBa6F3e72A5Eb4474cf66E4Db09CAbc5fE232131F",
      "function": "setGaladriel(address)",
      "arguments": [
        "0x4f1d722Be554DaAf0d2B934B29ABEA464bF8C6E7"
      ],
      "transaction": {
        "type": "0x02",
        "from": "0x3f5578de2fe708372470f77590b27f3ac64758c4",
        "to": "0xba6f3e72a5eb4474cf66e4db09cabc5fe232131f",
        "gas": "0x9125",
        "value": "0x0",
        "data": "0xb6223ef00000000000000000000000004f1d722be554daaf0d2b934b29abea464bf8c6e7",
        "nonce": "0x0",
        "accessList": []
      },
      "additionalContracts": [],
      "isFixedGasLimit": false
    },
    {
      "hash": "0x913ff71ac743347b57b2c95a40be1667c1f375a1ec7b0706a578f6f641bb3ce8",
      "transactionType": "CALL",
      "contractName": null,
      "contractAddress": "0xBa6F3e72A5Eb4474cf66E4Db09CAbc5fE232131F",
      "function": "setAllTags(string[])",
      "arguments": [
        "[\"ApeCoin Holder\", \"BoredApe Holder\", \"Layer2 user\", \"NFT Enthusiast\", \"Metaverse Explorer\", \"DAO Member\", \"DeFi Participant\", \"Web3 Developer\", \"Crypto Trader\", \"Token Staker\"]"
      ],
      "transaction": {
        "type": "0x02",
        "from": "0x3f5578de2fe708372470f77590b27f3ac64758c4",
        "to": "0xba6f3e72a5eb4474cf66e4db09cabc5fe232131f",
        "gas": "0x6425c",
        "value": "0x0",
        "data": "0x426108250000000000000000000000000000000000000000000000000000000000000020000000000000000000000000000000000000000000000000000000000000000a0000000000000000000000000000000000000000000000000000000000000140000000000000000000000000000000000000000000000000000000000000018000000000000000000000000000000000000000000000000000000000000001c000000000000000000000000000000000000000000000000000000000000002000000000000000000000000000000000000000000000000000000000000000240000000000000000000000000000000000000000000000000000000000000028000000000000000000000000000000000000000000000000000000000000002c0000000000000000000000000000000000000000000000000000000000000030000000000000000000000000000000000000000000000000000000000000003400000000000000000000000000000000000000000000000000000000000000380000000000000000000000000000000000000000000000000000000000000000e417065436f696e20486f6c646572000000000000000000000000000000000000000000000000000000000000000000000000000000000000000000000000000f426f72656441706520486f6c6465720000000000000000000000000000000000000000000000000000000000000000000000000000000000000000000000000b4c61796572322075736572000000000000000000000000000000000000000000000000000000000000000000000000000000000000000000000000000000000e4e465420456e746875736961737400000000000000000000000000000000000000000000000000000000000000000000000000000000000000000000000000124d6574617665727365204578706c6f7265720000000000000000000000000000000000000000000000000000000000000000000000000000000000000000000a44414f204d656d62657200000000000000000000000000000000000000000000000000000000000000000000000000000000000000000000000000000000001044654669205061727469636970616e7400000000000000000000000000000000000000000000000000000000000000000000000000000000000000000000000e5765623320446576656c6f706572000000000000000000000000000000000000000000000000000000000000000000000000000000000000000000000000000d43727970746f2054726164657200000000000000000000000000000000000000000000000000000000000000000000000000000000000000000000000000000c546f6b656e205374616b65720000000000000000000000000000000000000000",
        "nonce": "0x0",
        "accessList": []
      },
      "additionalContracts": [],
      "isFixedGasLimit": false
    }
  ],
  "receipts": [
    {
      "transactionHash": "0xffa6f8a098a91acd0dcac2aee4f863cfb06b1eeefcb2ac449a941a70619b8108",
      "transactionIndex": "0x0",
      "blockHash": "0x30ddf035bdf0d997ba87f8a388dcfb6682c4c62239c02a8544efc69839926e96",
      "blockNumber": "0x168a577",
      "from": "0x3f5578De2FE708372470F77590B27f3aC64758C4",
      "to": "0xBa6F3e72A5Eb4474cf66E4Db09CAbc5fE232131F",
      "cumulativeGasUsed": "0x0",
      "gasUsed": "0x6916",
      "contractAddress": "0xBa6F3e72A5Eb4474cf66E4Db09CAbc5fE232131F",
      "logs": [],
      "status": "0x1",
      "logsBloom": "0x00000000000000000000000000000000000000000000000000000000000000000000000000000000000000000000000000000000000000000000000000000000000000000000000000000000000000000000000000000000000000000000000000000000000000000000000000000000000000000000000000000000000000000000000000000000000000000000000000000000000000000000000000000000000000000000000000000000000000000000000000000000000000000000000000000000000000000000000000000000000000000000000000000000000000000000000000000000000000000000000000000000000000000000000000000000",
      "type": "0x2",
      "effectiveGasPrice": "0xb2d05e00"
    }
  ],
  "libraries": [],
  "pending": [],
  "returns": {},
  "timestamp": 1720912471,
  "chain": 696969,
  "multi": false,
  "commit": "aecd391"
}