{
  "transactions": [
    {
      "hash": "0x04e4d84c50cf408e589da727222545a08de15ae2ed5e0485627a23b7f36ccd72",
      "transactionType": "CALL",
      "contractName": null,
      "contractAddress": "0x35b97f170f439f4C411fAA9076B38A6Bd0BF2247",
      "function": "setAllTags(string[])",
      "arguments": [
        "[\"ApeCoin Holder\", \"BoredApe Holder\", \"Layer2 user\", \"NFT Enthusiast\", \"Metaverse Explorer\", \"DAO Member\", \"DeFi Participant\", \"Web3 Developer\", \"Crypto Trader\", \"Token Staker\"]"
      ],
      "transaction": {
        "type": "0x02",
        "from": "0x521f5916db34cd5cca5387d05905c4a577d44292",
        "to": "0x35b97f170f439f4c411faa9076b38a6bd0bf2247",
        "gas": "0x6425c",
        "value": "0x0",
        "data": "0x426108250000000000000000000000000000000000000000000000000000000000000020000000000000000000000000000000000000000000000000000000000000000a0000000000000000000000000000000000000000000000000000000000000140000000000000000000000000000000000000000000000000000000000000018000000000000000000000000000000000000000000000000000000000000001c000000000000000000000000000000000000000000000000000000000000002000000000000000000000000000000000000000000000000000000000000000240000000000000000000000000000000000000000000000000000000000000028000000000000000000000000000000000000000000000000000000000000002c0000000000000000000000000000000000000000000000000000000000000030000000000000000000000000000000000000000000000000000000000000003400000000000000000000000000000000000000000000000000000000000000380000000000000000000000000000000000000000000000000000000000000000e417065436f696e20486f6c646572000000000000000000000000000000000000000000000000000000000000000000000000000000000000000000000000000f426f72656441706520486f6c6465720000000000000000000000000000000000000000000000000000000000000000000000000000000000000000000000000b4c61796572322075736572000000000000000000000000000000000000000000000000000000000000000000000000000000000000000000000000000000000e4e465420456e746875736961737400000000000000000000000000000000000000000000000000000000000000000000000000000000000000000000000000124d6574617665727365204578706c6f7265720000000000000000000000000000000000000000000000000000000000000000000000000000000000000000000a44414f204d656d62657200000000000000000000000000000000000000000000000000000000000000000000000000000000000000000000000000000000001044654669205061727469636970616e7400000000000000000000000000000000000000000000000000000000000000000000000000000000000000000000000e5765623320446576656c6f706572000000000000000000000000000000000000000000000000000000000000000000000000000000000000000000000000000d43727970746f2054726164657200000000000000000000000000000000000000000000000000000000000000000000000000000000000000000000000000000c546f6b656e205374616b65720000000000000000000000000000000000000000",
        "nonce": "0x0",
        "accessList": []
      },
      "additionalContracts": [],
      "isFixedGasLimit": false
    }
  ],
  "receipts": [
    {
      "transactionHash": "0x04e4d84c50cf408e589da727222545a08de15ae2ed5e0485627a23b7f36ccd72",
      "transactionIndex": "0x0",
      "blockHash": "0x67b3852c5f9e94860c0c8c89bcb0c64cba91ab188b7c4d8b17e0a0d56e01960f",
      "blockNumber": "0x168617a",
      "from": "0x521F5916DB34Cd5CcA5387D05905c4a577D44292",
      "to": "0x35b97f170f439f4C411fAA9076B38A6Bd0BF2247",
      "cumulativeGasUsed": "0x0",
      "gasUsed": "0x447a2",
      "contractAddress": "0x35b97f170f439f4C411fAA9076B38A6Bd0BF2247",
      "logs": [],
      "status": "0x1",
      "logsBloom": "0x00000000000000000000000000000000000000000000000000000000000000000000000000000000000000000000000000000000000000000000000000000000000000000000000000000000000000000000000000000000000000000000000000000000000000000000000000000000000000000000000000000000000000000000000000000000000000000000000000000000000000000000000000000000000000000000000000000000000000000000000000000000000000000000000000000000000000000000000000000000000000000000000000000000000000000000000000000000000000000000000000000000000000000000000000000000",
      "type": "0x2",
      "effectiveGasPrice": "0xb2d05e00"
    }
  ],
  "libraries": [],
  "pending": [],
  "returns": {},
  "timestamp": 1720904206,
  "chain": 696969,
  "multi": false,
  "commit": "aeb27f8"
}