{
  "transactions": [
    {
      "hash": null,
      "transactionType": "CALL",
      "contractName": null,
      "contractAddress": "0x35b97f170f439f4C411fAA9076B38A6Bd0BF2247",
      "function": "setAllTags(string[])",
      "arguments": [
        "[\"ApeCoin Holder\", \"BoredApe Holder\", \"Layer2 user\", \"NFT Enthusiast\", \"Metaverse Explorer\", \"DAO Member\", \"DeFi Participant\", \"Web3 Developer\", \"Crypto Trader\", \"Token Staker\"]"
      ],
      "transaction": {
        "type": "0x02",
        "from": "0x521f5916db34cd5cca5387d05905c4a577d44292",
        "to": "0x35b97f170f439f4c411faa9076b38a6bd0bf2247",
        "gas": "0x6425c",
        "value": "0x0",
        "data": "0x426108250000000000000000000000000000000000000000000000000000000000000020000000000000000000000000000000000000000000000000000000000000000a0000000000000000000000000000000000000000000000000000000000000140000000000000000000000000000000000000000000000000000000000000018000000000000000000000000000000000000000000000000000000000000001c000000000000000000000000000000000000000000000000000000000000002000000000000000000000000000000000000000000000000000000000000000240000000000000000000000000000000000000000000000000000000000000028000000000000000000000000000000000000000000000000000000000000002c0000000000000000000000000000000000000000000000000000000000000030000000000000000000000000000000000000000000000000000000000000003400000000000000000000000000000000000000000000000000000000000000380000000000000000000000000000000000000000000000000000000000000000e417065436f696e20486f6c646572000000000000000000000000000000000000000000000000000000000000000000000000000000000000000000000000000f426f72656441706520486f6c6465720000000000000000000000000000000000000000000000000000000000000000000000000000000000000000000000000b4c61796572322075736572000000000000000000000000000000000000000000000000000000000000000000000000000000000000000000000000000000000e4e465420456e746875736961737400000000000000000000000000000000000000000000000000000000000000000000000000000000000000000000000000124d6574617665727365204578706c6f7265720000000000000000000000000000000000000000000000000000000000000000000000000000000000000000000a44414f204d656d62657200000000000000000000000000000000000000000000000000000000000000000000000000000000000000000000000000000000001044654669205061727469636970616e7400000000000000000000000000000000000000000000000000000000000000000000000000000000000000000000000e5765623320446576656c6f706572000000000000000000000000000000000000000000000000000000000000000000000000000000000000000000000000000d43727970746f2054726164657200000000000000000000000000000000000000000000000000000000000000000000000000000000000000000000000000000c546f6b656e205374616b65720000000000000000000000000000000000000000",
        "nonce": "0x0",
        "accessList": []
      },
      "additionalContracts": [],
      "isFixedGasLimit": false
    }
  ],
  "receipts": [],
  "libraries": [],
  "pending": [],
  "returns": {},
  "timestamp": 1720904141,
  "chain": 696969,
  "multi": false,
  "commit": "aeb27f8"
}